:020000040800F2
:10000000003000202D17000851030008530300089A
:1000100055030008570300085903000800000000BA
:100020000000000000000000000000005B0300086A
:100030005D030008000000005F0300086103000882
:100040007D1700087D1700087D1700087D17000840
:100050007D1700087D1700087D1700087D17000830
:100060007D1700087D1700087D1700087D17000820
:100070007D1700087D1700087D1700087D17000810
:100080007D1700087D1700087D1700087D17000800
:100090007D1700087D1700087D1700087D170008F0
:1000A0007D1700087D1700087D1700087D170008E0
:1000B0007D1700087D170008000000007D1700086C
:1000C0007D17000800000000000000007D170008F8
:1000D000000000007D1700087D1700087D1700084C
:1000E0007D1700087D1700080000000000000000D8
:1000F0000000000000000000000000000000000000
:1001000000000000000000000000000000000000EF
:1001100000000000000000007D1700087D170008A7
:1001200000000000000000000000000000000000CF
:1001300000000000000000000000000000000000BF
:100140007D1700087D170008000000000000000077
:10015000000000000000000000000000000000009F
:10016000000000000000000000000000000000008F
:10017000000000000000000000000000000000007F
:08018000000000007D170008DB
:1001880010B5054C237833B9044B13B10448AFF3C9
:1001980000800123237010BD0C0000200000000027
:1001A800C817000808B5034B1BB103490348AFF350
:1001B800008008BD0000000010000020C8170008DB
:1001C800034613F8012B002AFBD1181A013870478F
:1001D800FEE7000000B597B002230C9301231093AB
:1001E80010231193002313930CA800F061F930BB7E
:1001F8000F2307930021089109910A910B9107A8F1
:1002080000F092FCF8B9012301930023039301A89D
:1002180000F08CFDD8B900F057FD0F4BA3FB003060
:10022800800900F053FF042000F066FF0022114609
:100238004FF0FF3000F016FF17B05DF804FBA8215F
:100248000648FFF7C5FFB6210448FFF7C1FFBD21E7
:100258000248FFF7BDFF00BFD34D6210E01700084A
:1002680008B500F0EDF8FFF7B5FF00F02BF800F047
:100278009DFF104801F002F80F4B5A6802F4807293
:100288005A601A6842F004021A601A6842F00802BA
:100298001A605A6842F480725A60084800F0EEFF0B
:1002A8004FF47A7000F0F0F800F03CFF044800F0DA
:1002B800E5FFDEE7EC1700080070004004180008AE
:1002C8001818000830B589B01C4B5A6942F48002EE
:1002D8005A615A6902F480020092009A5A6942F4FB
:1002E80000325A615A6902F400320192019A5A693D
:1002F80042F480225A615B6903F480230293029BD3
:100308000324039404940025059503A90C4800F0E0
:10031800D3FD4FF6F21303930494059503A94FF008
:10032800904000F0C9FDFB2303930494059503A9AD
:10033800044800F0C1FD09B030BD00BF0010024004
:1003480000140048000400487047FEE7FEE7FEE797
:10035800FEE770477047704708B500F083F800F073
:10036800DCFE08BD00B583B0214B9A6942F001025A
:100378009A619A6902F001020092009ADA6942F0E1
:100388008052DA61DB6903F080530193019B0320FB
:1003980000F056FE002211466FF00B0000F062FEDE
:1003A800002211466FF00A0000F05CFE00221146A0
:1003B8006FF0090000F056FE002211466FF00400AD
:1003C80000F050FE002211466FF0030000F04AFED4
:1003D800002211466FF0010000F044FE0022114691
:1003E8004FF0FF3000F03EFE03B05DF804FB00BFA5
:1003F8000010024010B504460E4B18784FF47A737B
:10040800B3FBF0F30C4A1068B0FBF3F000F05EFEAB
:1004180068B90F2C01D901200AE0002221464FF0CB
:10042800FF3000F01FFE054B1C60002000E001209B
:1004380010BD00BF000000200800002004000020BC
:1004480008B5074A136843F010031360032000F04F
:10045800F7FD0020FFF7CEFFFFF784FF002008BD5F
:1004680000200240034A1168034B1B780B441360B9
:10047800704700BF2800002000000020014B1868CA
:10048800704700BF2800002038B50446FFF7F6FF84
:100498000546B4F1FF3F02D0044B1B781C44FFF71C
:1004A800EDFF401BA042FAD338BD00BF000000207A
:1004B800002800F0EB8270B582B00446036813F0A0
:1004C800010F3BD0B54B5B6803F00C03042B1ED027
:1004D800B24B5B6803F00C03082B13D06368B3F5C9
:1004E800803F68D0002B40F0928003F1804303F5F1
:1004F80004331A6822F480321A601A6822F48022BF
:100508001A605DE0A54B5B6813F4803FE6D04FF4BA
:10051800003393FAA3F3A14B19684FF4003393FA0D
:10052800A3F3B3FA83F303F01F03012202FA03F3E0
:100538000B4203D06368002B00F0AA82236813F0F3
:10054800020F00F0C580954B5B6813F00C0F00F0AC
:100558009C80924B5B6803F00C03082B00F08F80A3
:100568002369002B00F0F280012292FAA2F3B3FA79
:1005780083F303F1845303F584139B001A60FFF798
:100588007DFF0546022393FAA3F3844B19680223DF
:1005980093FAA3F3B3FA83F303F01F03012202FAD9
:1005A80003F30B4240F0C380FFF768FF401B0228AB
:1005B800E8D9032075E2794A136843F4803313605D
:1005C800764AD36A23F00F03A1680B43D3626368AA
:1005D800002B36D0FFF752FF05464FF4003393FA4D
:1005E800A3F36E4B19684FF4003393FAA3F3B3FAED
:1005F80083F303F01F03012202FA03F30B429DD198
:10060800FFF73CFF401B6428E7D9032049E2B3F514
:10061800A02F09D0614B1A6822F480321A601A6838
:1006280022F480221A60CBE703F18043A3F53C3320
:100638001A6842F480221A601A6842F480321A60FA
:10064800BEE7FFF71BFF05464FF4003393FAA3F309
:10065800524B19684FF4003393FAA3F3B3FA83F3B8
:1006680003F01F03012202FA03F30B423FF466AFC3
:10067800FFF704FF401B6428E6D9032011E2474B2B
:100688005B6813F4803F7FF46BAF022393FAA3F304
:10069800424B1968022393FAA3F3B3FA83F303F0E6
:1006A8001F03012202FA03F30B4203D0236993428A
:1006B80040F0F0813948036823F0F8036169F822B3
:1006C80092FAA2F2B2FA82F201FA02F2134303603A
:1006D800236813F0080F00F08D80A369002B61D008
:1006E800012191FAA1F2B2FA82F22D4B13449B0038
:1006F8001960FFF7C3FE0546022393FAA3F293FAA3
:10070800A3F293FAA3F2254A516A93FAA3F3B3FA30
:1007180083F303F01F03012202FA03F30B4269D1AA
:10072800FFF7ACFE401B0228E6D90320B9E11B48BD
:10073800036823F0F8036169F82292FAA2F2B2FA88
:1007480082F201FA02F213430360C1E7012393FA2C
:10075800A3F3B3FA83F303F1845303F584139B00E3
:1007680000221A60FFF78AFE0546022393FAA3F3D4
:100778000A4B1968022393FAA3F3B3FA83F303F03D
:100788001F03012202FA03F30B42A1D0FFF776FE02
:10079800401B0228E9D9032083E100BF0010024072
:1007A80020819010012292FAA2F2B2FA82F2BF4B93
:1007B80013449B0000221A60FFF760FE05460223DF
:1007C80093FAA3F293FAA3F293FAA3F2B84A516AFE
:1007D80093FAA3F3B3FA83F303F01F03012202FA97
:1007E80003F30B4206D0FFF749FE401B0228E6D967
:1007F800032056E1236813F0040F00F0A980AC4BE6
:10080800DB6913F0805F0BD1A94BDA6942F08052A3
:10081800DA61DB6903F080530193019B012500E055
:100828000025A44B1B6813F4807F10D0E368012BCC
:1008380021D063BB03F1804303F504331A6A22F025
:1008480001021A621A6A22F004021A6218E0994A2E
:10085800136843F480731360FFF710FE0646954B48
:100868001B6813F4807FE1D1FFF708FE801B642822
:10087800F5D9032015E18E4A136A43F00103136288
:10088800E368002B3CD0FFF7F9FD06462EE0052B68
:1008980009D0874B1A6A22F001021A621A6A22F0FA
:1008A80004021A62ECE7824B1A6A42F004021A62E6
:1008B8001A6A42F001021A62E2E7022393FAA3F3EA
:1008C8007B4B596A022393FAA3F3B3FA83F303F039
:1008D8001F03012202FA03F3194238D1FFF7CEFDB4
:1008E800801B41F28833984200F2D680022393FAA3
:1008F800A3F293FAA3F3002BDFD06D4B196AE1E75B
:10090800FFF7BCFD064618E0022393FAA3F3684BF1
:10091800596A022393FAA3F3B3FA83F303F01F038C
:10092800012202FA03F3194211D0FFF7A7FD801B39
:1009380041F28833984200F2B180022393FAA3F27D
:1009480093FAA3F3002BDFD0594B196AE1E7B5BB43
:10095800E369002B00F0A480554A526802F00C02AB
:10096800082A00F0A080022B2FD04FF0807393FA52
:10097800A3F3B3FA83F303F1845303F584139B00C1
:1009880000221A60FFF77AFD04464FF0007393FACD
:10099800A3F3474B19684FF0007393FAA3F3B3FA24
:1009A80083F303F01F03012202FA03F319426BD009
:1009B800FFF764FD001B0228E7D9032071E03C4AD9
:1009C800D36923F08053D361C2E74FF0807393FA61
:1009D800A3F3B3FA83F303F1845303F584139B0061
:1009E80000221A60FFF74AFD05464FF0007393FA9C
:1009F800A3F32F4B19684FF0007393FAA3F3B3FADC
:100A080083F303F01F03012202FA03F3194206D00D
:100A1800FFF734FD401B0228E7D9032041E02449B1
:100A28004B6823F47413626A206A024313434B60D1
:100A38004FF0807393FAA3F3B3FA83F303F184536B
:100A480003F584139B0001221A60FFF717FD044683
:100A58004FF0007393FAA3F3154B19684FF0007326
:100A680093FAA3F3B3FA83F303F01F03012202FA04
:100A780003F3194206D1FFF701FD001B0228E7D94D
:100A880003200EE000200CE000200AE0012070475F
:100A9800012006E0012004E0032002E0032000E03A
:100AA800002002B070BD0120FBE700BF208190103C
:100AB8000010024000700040164B5B6803F00C0207
:100AC800082A01D01448704703F470114FF47012CB
:100AD80092FAA2F2B2FA82F221FA02F20F49885C83
:100AE8000C4AD26A02F00F020F2191FAA1F1B1FA71
:100AF80081F1CA400A498A5C13F4803F05D0064B4D
:100B0800B3FBF2F300FB03F07047064B03FB00F066
:100B1800704700BF0010024000127A003418000825
:100B28004418000800093D00002800F0BD8070B599
:100B38000D460446604B1B6803F007038B420BD23B
:100B48005D4A136823F007030B431360136803F02F
:100B580007038B4240F0AA80236813F0020F06D0E7
:100B6800564A536823F0F003A1680B435360236887
:100B780013F0010F5AD06368012B2DD0022B40D0FF
:100B8800022292FAA2F24D4A1068022292FAA2F2C6
:100B9800B2FA82F202F01F02012101FA02F21042B7
:100BA80000F0868045494A6822F0030213434B60EF
:100BB800FFF764FC0646414B5B6803F00C03626870
:100BC800B3EB820F32D0FFF759FC801B41F2883318
:100BD8009842F0D9032066E04FF4003292FAA2F26C
:100BE800364A10684FF4003292FAA2F2B2FA82F250
:100BF80002F01F02012101FA02F20242D2D10120C1
:100C080051E04FF0007292FAA2F22C4A10684FF0AD
:100C1800007292FAA2F2B2FA82F202F01F020121E5
:100C280001FA02F21042BDD101203CE0224B1B68C0
:100C380003F00703AB420AD91F4A136823F00703DE
:100C48002B431360136803F00703AB4232D12368C8
:100C580013F0040F06D0194A536823F4E063E168DF
:100C68000B435360236813F0080F07D0134A5368E7
:100C780023F46053216943EAC1035360FFF71CFF63
:100C88000E4B5B6803F0F003F02292FAA2F2B2FA7C
:100C980082F2D3400A4AD35CD8400A4B186000203D
:100CA800FFF7A8FB002070BD012070470120FAE77C
:100CB8000120F8E70120F6E700200240001002407A
:100CC8005418000808000020014B1868704700BF3E
:100CD8000800002008B5FFF7F7FF074B5B6803F42F
:100CE800E0634FF4E06292FAA2F2B2FA82F2D340E1
:100CF800024AD35CD84008BD0010024064180008BE
:100D080008B5FFF7E1FF074B5B6803F460534FF446
:100D1800605292FAA2F2B2FA82F2D340024AD35C4B
:100D2800D84008BD0010024064180008F0B583B030
:100D38000446036813F4803F44D05C4BDB6913F02E
:100D4800805F6DD1594BDA6942F08052DA61DB6914
:100D580003F080530193019B0125554B1B6813F445
:100D6800807F5FD0514B1B6A13F4407321D06268B7
:100D780002F440729A421CD04C48016A21F4407631
:100D88004FF4803393FAA3F2B2FA82F2494F3A440D
:100D980092004FF0010CC2F800C093FAA3F3B3FA23
:100DA80083F33B449B0000221A60066211F0010F96
:100DB8004CD13E4A136A23F4407361680B431362B3
:100DC800002D69D1236813F0010F06D0374A136B41
:100DD80023F00303A1680B431363236813F0200F68
:100DE80006D0324A136B23F01003E1680B431363F8
:100DF800236813F0800F06D02C4AD36A23F4F873C3
:100E080021690B43D362236813F4805F4BD0274AD0
:100E1800136B23F4807361690B431363002043E071
:100E280000259AE7224A136843F480731360FFF79A
:100E380025FB06461E4B1B6813F4807F92D1FFF7F3
:100E48001DFB801B6428F5D903202DE0FFF716FB56
:100E5800064617E0022393FAA3F3144B596A0223B8
:100E680093FAA3F3B3FA83F303F01F03012202FA00
:100E780003F30B429DD1FFF701FB801B41F288333E
:100E880098420ED8022393FAA3F293FAA3F3002B05
:100E9800E0D0064B196AE2E7D36923F08053D361A7
:100EA80090E7032000E0002003B0F0BD00100240EE
:100EB8000070004000819010F0B482B0002236E04B
:100EC800032400E00024B4403C430235584E46F861
:100ED8002540584C2568DC4325EA03064F6817F47B
:100EE800803F01D043EA0506524D2E606D6804EA42
:100EF80005064F6817F4003F01D043EA05064D4D3B
:100F08006E60AD6804EA05064F6817F4801F01D0CB
:100F180043EA0506474DAE60ED682C404E6816F46E
:100F2800001F01D043EA0504424BDC6001320B6824
:100F380033FA02F479D0012494402340F6D04D6866
:100F4800022D01D0122D10D1D608083650F826C02F
:100F580002F00705AF000F25BD402CEA050C0D690E
:100F6800BD4045EA0C0540F82650D0F800C05600B0
:100F78000325B540EF432CEA050C4D6805F0030541
:100F8800B54045EA0C0505604D6805F1FF3CBCF12C
:100F9800010F03D9112D01D0122D10D1856807EA50
:100FA800050CCD68B54045EA0C058560456825EA1D
:100FB80004044D68C5F30015954025434560C46891
:100FC80027408C68B4403C43C4604C6814F0805F90
:100FD800ACD0194CA56945F00105A561A46904F0D8
:100FE80001040194019C9508AE1C114C54F826701C
:100FF80002F00304A6000F24B44027EA0407B0F166
:10100800904F3FF45FAF0D4CA0420AD004F58064C6
:10101800A04208D004F58064A0423FF451AF0524F3
:1010280051E701244FE702244DE702B0F0BC7047B6
:101038000000014000040140001002400004004884
:10104800074AD36823F4E0631B041B0C000200F476
:10105800E060034343F0BF6343F40033D360704759
:1010680000ED00E030B4174BDB68C3F30223C3F193
:101078000704042C28BF04241D1D062D18D9033B82
:101088004FF0FF3505FA04F421EA0401994005FA06
:1010980003F322EA0303194300280BDB0901C9B251
:1010A80000F1604000F5614080F8001330BC7047E3
:1010B8000023E5E700F00F000901C9B2024B1954FB
:1010C800F4E700BF00ED00E014ED00E00138B0F1F6
:1010D800807F0AD2064B5860064AF02182F8231016
:1010E8000020986007221A6070470120704700BFEF
:1010F80010E000E000ED00E0042805D0054A136880
:1011080023F0040313607047024A136843F0040392
:101118001360704710E000E0704708B5FFF7FCFF68
:1011280008BD0000054A136843F002031360044A2F
:10113800136943F00403136130BF70470070004027
:1011480000ED00E01549D1F8883043F47003C1F888
:101158008830134B1A6842F001021A605868114A25
:1011680002405A601A6822F0847222F480321A60AF
:101178001A6822F480221A605A6822F4FE025A6021
:10118800DA6A22F00F02DA62186B074A02401A6321
:1011980000229A604FF000638B60704700ED00E01A
:1011A800001002400CC07FF8CCFC00FF08B50C48CA
:1011B8000C4B03604FF4E133436000238360C3604A
:1011C80003610C2242618361C3610362436200F0E0
:1011D80076FA00B908BD5A210348FEF7F9FFF9E786
:1011E8009C000020004400406C18000800B589B03D
:1011F80003681F4A934205D01E4A93421DD009B086
:101208005DF804FB1C4B9A6942F480429A619B6921
:1012180003F480430193019B4FF4C06303930223BB
:10122800049300230593032306930723079303A935
:101238004FF09040FFF740FEE1E70F4BDA6942F4C8
:101248000032DA61DB6903F400330293029B0C235A
:101258000393022304930023059303230693072390
:10126800079303A94FF09040FFF726FEC7E700BF9A
:1012780000380140004400400010024010B5044608
:10128800FEF79EFF4FF47A7382B22146014800F0C0
:1012980078F910BD9C00002038B5044683680269BF
:1012A800134342691343C269134301680868654AD6
:1012B800024013430B602268536823F44053E168EB
:1012C8000B435360A369226A1A4321688B6823F48D
:1012D800306313438B6023685B4A934215D05B4AA3
:1012E800934229D002F58062934221D01025E26909
:1012F800B2F5004F22D0082D00F2A180DFE805F0FA
:1013080066717D9F899F9F9F950002F55842126BD9
:1013180002F00302032A09D8DFE802F00204060CEF
:101328000025E4E70425E2E70825E0E71025DEE7E5
:101338000025DCE70225DAE70025D8E7082D42D8A2
:10134800DFE805F0051722412D4141413800FFF73C
:10135800C1FC6268530803EB4003B3FBF2F39BB292
:1013680023F00F02C3F3420313432268D3602846D5
:1013780038BDFFF7C5FC6268530803EB4003B3FBB5
:10138800F2F39BB20025EBE76268530803F5740398
:1013980003F51053B3FBF2F39BB20025E0E7FFF728
:1013A8008BFB6268530803EB4003B3FBF2F39BB279
:1013B8000025D5E76268530803F58033B3FBF2F3E1
:1013C8009BB20025CCE701250023C9E7FFF782FC83
:1013D800626800EB5203B3FBF2F322689BB2D3605E
:1013E800C5E7FFF78DFC626800EB5203B3FBF2F32D
:1013F80022689BB2D3600025B9E761684A0802F504
:10140800F40202F59052B2FBF1F292B2DA600025D2
:10141800ADE7FFF751FB626800EB5203B3FBF2F351
:1014280022689BB2D3600025A1E761684A0802F5EB
:101438000042B2FBF1F292B2DA60002597E701258B
:1014480095E700BFF369FFEF003801400044004012
:10145800436A13F0010F06D00268536823F400337F
:10146800816A0B435360436A13F0020F06D0026887
:10147800536823F48033C16A0B435360436A13F003
:10148800040F06D00268536823F48023016B0B43D2
:101498005360436A13F0080F06D00268536823F4B8
:1014A8000043416B0B435360436A13F0100F06D09F
:1014B8000268936823F48053816B0B439360436AFB
:1014C80013F0200F06D00268936823F40053C16B11
:1014D8000B439360436A13F0400F0AD002685368C5
:1014E80023F48013016C0B435360036CB3F5801F26
:1014F8000BD0436A13F0800F06D00268536823F4B8
:101508000023816C0B43536070470268536823F4CF
:10151800C003416C0B435360EBE72DE9F8430546E4
:101528000F4616469946DDF820802C68E46937EAAC
:1015380004030CBF01240024B4421FD1B8F1FF3FBB
:10154800F3D0B8F1000F05D0FEF798FFA0EB090023
:101558004045EAD92A68136823F4D07313602A68CF
:10156800936823F001039360202385F8693085F898
:101578006A30002385F86830032000E00020BDE8C9
:10158800F8832DE9F04182B01E4690F86930DBB24D
:10159800202B4ED104460D46904600294DD0002AF6
:1015A8004DD090F86830012B4BD0012380F868307B
:1015B8000023C366212380F86930FEF75FFF0746E2
:1015C800A4F85080A4F8528003E0236815F8012B92
:1015D8001A85B4F852309BB2E3B1B4F8522092B2F3
:1015E800013A92B2A4F8522000963B46002280218C
:1015F8002046FFF792FF30BBA368B3F5805FE4D1C4
:101608002369002BE1D1226835F8023BC3F30803B4
:101618001385DEE700963B46002240212046FFF76F
:101628007CFF90B9202384F86930002384F868305F
:1016380000E0022002B0BDE8F0810120FAE70120B5
:10164800F8E70220F6E70320F4E70320F2E730B5D5
:1016580083B004460023C366FEF710FF05462368DF
:101668001B6813F0080F0ED123681B6813F0040FD2
:1016780017D1202384F8693084F86A30002084F870
:10168800680003B030BD6FF07E430093034600222C
:101698004FF400112046FFF740FF0028E4D0032054
:1016A800EFE76FF07E4300932B4600224FF4800152
:1016B8002046FFF732FF0028DBD00320E1E778B3AC
:1016C80010B5044690F869300BB3242384F86930C8
:1016D8002268136823F0010313602046FFF7DCFD3E
:1016E800012813D0636ABBB92268536823F4904376
:1016F80053602268936823F02A0393602268136872
:1017080043F0010313602046FFF7A1FF10BD80F8E6
:101718006830FFF76BFDD8E72046FFF799FEE3E74F
:1017280001207047DFF834D0002103E00C4B5B58F0
:10173800435004310B480C4B42189A42F6D30B4ADB
:1017480002E0002342F8043B094B9A42F9D3FFF721
:10175800F9FC00F011F8FEF783FDFEE700300020E9
:1017680080180008000000200C0000200C00002059
:101778000C010020FEE7000070B50D4D0D4C641BF8
:10178800A4100026A64209D10B4D0C4C00F018F805
:10179800641BA4100026A64205D170BD55F8043B71
:1017A80098470136EEE755F8043B98470136F2E7CB
:1017B8007818000878180008781800087C180008BD
:1017C800F8B500BFF8BC08BC9E467047F8B500BF26
:0817D800F8BC08BC9E467047F6
:1017E0005372632F6D61696E2E630000492068613A
:1017F0007665206265656E2061776F6B656E2E2E53
:101800000D0A0000476F74206865726520746F6F61
:101810002E2E0D0A0000000053686F756C646E2751
:1018200074206F6620676F742068657265212E2EA4
:101830000D0A000002030405060708090A0B0C0D37
:101840000E0F10100102030405060708090A0B0C0D
:101850000D0E0F1000000000000000000102030444
:101860000607080900000000010203045372632FF9
:0818700075736172742E6300B0
:04187800AD010008B6
:04187C0089010008D6
:0C188000010000001000000000127A00BF
:040000050800172DAB
:00000001FF
